{
  "contractName": "EthSwap",
  "abi": [
    {
      "inputs": [
        {
          "internalType": "contract Token",
          "name": "_token",
          "type": "address"
        }
      ],
      "payable": false,
      "stateMutability": "nonpayable",
      "type": "constructor"
    },
    {
      "anonymous": false,
      "inputs": [
        {
          "indexed": false,
          "internalType": "address",
          "name": "account",
          "type": "address"
        },
        {
          "indexed": false,
          "internalType": "address",
          "name": "token",
          "type": "address"
        },
        {
          "indexed": false,
          "internalType": "uint256",
          "name": "amount",
          "type": "uint256"
        },
        {
          "indexed": false,
          "internalType": "uint256",
          "name": "rate",
          "type": "uint256"
        }
      ],
      "name": "TokensPurchased",
      "type": "event"
    },
    {
      "anonymous": false,
      "inputs": [
        {
          "indexed": false,
          "internalType": "address",
          "name": "account",
          "type": "address"
        },
        {
          "indexed": false,
          "internalType": "address",
          "name": "token",
          "type": "address"
        },
        {
          "indexed": false,
          "internalType": "uint256",
          "name": "amount",
          "type": "uint256"
        },
        {
          "indexed": false,
          "internalType": "uint256",
          "name": "rate",
          "type": "uint256"
        }
      ],
      "name": "TokensSold",
      "type": "event"
    },
    {
      "constant": true,
      "inputs": [],
      "name": "name",
      "outputs": [
        {
          "internalType": "string",
          "name": "",
          "type": "string"
        }
      ],
      "payable": false,
      "stateMutability": "view",
      "type": "function"
    },
    {
      "constant": true,
      "inputs": [],
      "name": "rate",
      "outputs": [
        {
          "internalType": "uint256",
          "name": "",
          "type": "uint256"
        }
      ],
      "payable": false,
      "stateMutability": "view",
      "type": "function"
    },
    {
      "constant": true,
      "inputs": [],
      "name": "token",
      "outputs": [
        {
          "internalType": "contract Token",
          "name": "",
          "type": "address"
        }
      ],
      "payable": false,
      "stateMutability": "view",
      "type": "function"
    },
    {
      "constant": false,
      "inputs": [],
      "name": "buyTokens",
      "outputs": [],
      "payable": true,
      "stateMutability": "payable",
      "type": "function"
    },
    {
      "constant": false,
      "inputs": [
        {
          "internalType": "uint256",
          "name": "_amount",
          "type": "uint256"
        }
      ],
      "name": "sellTokens",
      "outputs": [],
      "payable": false,
      "stateMutability": "nonpayable",
      "type": "function"
    }
  ],
  "bytecode": "0x60806040526040518060400160405280601881526020017f4574685377617020496e7374616e742045786368616e676500000000000000008152506000908051906020019061004f9291906100dc565b50606460025534801561006157600080fd5b50604051610a09380380610a098339818101604052602081101561008457600080fd5b810190808051906020019092919050505080600160006101000a81548173ffffffffffffffffffffffffffffffffffffffff021916908373ffffffffffffffffffffffffffffffffffffffff16021790555050610181565b828054600181600116156101000203166002900490600052602060002090601f016020900481019282601f1061011d57805160ff191683800117855561014b565b8280016001018555821561014b579182015b8281111561014a57825182559160200191906001019061012f565b5b509050610158919061015c565b5090565b61017e91905b8082111561017a576000816000905550600101610162565b5090565b90565b610879806101906000396000f3fe60806040526004361061004a5760003560e01c806306fdde031461004f5780632c4e722e146100df5780636c11bcd31461010a578063d0febe4c14610145578063fc0c546a1461014f575b600080fd5b34801561005b57600080fd5b506100646101a6565b6040518080602001828103825283818151815260200191508051906020019080838360005b838110156100a4578082015181840152602081019050610089565b50505050905090810190601f1680156100d15780820380516001836020036101000a031916815260200191505b509250505060405180910390f35b3480156100eb57600080fd5b506100f4610244565b6040518082815260200191505060405180910390f35b34801561011657600080fd5b506101436004803603602081101561012d57600080fd5b810190808035906020019092919050505061024a565b005b61014d61057c565b005b34801561015b57600080fd5b5061016461081e565b604051808273ffffffffffffffffffffffffffffffffffffffff1673ffffffffffffffffffffffffffffffffffffffff16815260200191505060405180910390f35b60008054600181600116156101000203166002900480601f01602080910402602001604051908101604052809291908181526020018280546001816001161561010002031660029004801561023c5780601f106102115761010080835404028352916020019161023c565b820191906000526020600020905b81548152906001019060200180831161021f57829003601f168201915b505050505081565b60025481565b80600160009054906101000a900473ffffffffffffffffffffffffffffffffffffffff1673ffffffffffffffffffffffffffffffffffffffff166370a08231336040518263ffffffff1660e01b8152600401808273ffffffffffffffffffffffffffffffffffffffff1673ffffffffffffffffffffffffffffffffffffffff16815260200191505060206040518083038186803b1580156102ea57600080fd5b505afa1580156102fe573d6000803e3d6000fd5b505050506040513d602081101561031457600080fd5b8101908080519060200190929190505050101561033057600080fd5b6000600254828161033d57fe5b0490508047101561034d57600080fd5b600160009054906101000a900473ffffffffffffffffffffffffffffffffffffffff1673ffffffffffffffffffffffffffffffffffffffff166323b872dd3330856040518463ffffffff1660e01b8152600401808473ffffffffffffffffffffffffffffffffffffffff1673ffffffffffffffffffffffffffffffffffffffff1681526020018373ffffffffffffffffffffffffffffffffffffffff1673ffffffffffffffffffffffffffffffffffffffff1681526020018281526020019350505050602060405180830381600087803b15801561042a57600080fd5b505af115801561043e573d6000803e3d6000fd5b505050506040513d602081101561045457600080fd5b8101908080519060200190929190505050503373ffffffffffffffffffffffffffffffffffffffff166108fc829081150290604051600060405180830381858888f193505050501580156104ac573d6000803e3d6000fd5b507f6faf93231a456e552dbc9961f58d9713ee4f2e69d15f1975b050ef0911053a7b33600160009054906101000a900473ffffffffffffffffffffffffffffffffffffffff1684600254604051808573ffffffffffffffffffffffffffffffffffffffff1673ffffffffffffffffffffffffffffffffffffffff1681526020018473ffffffffffffffffffffffffffffffffffffffff1673ffffffffffffffffffffffffffffffffffffffff16815260200183815260200182815260200194505050505060405180910390a15050565b600060025434029050600160009054906101000a900473ffffffffffffffffffffffffffffffffffffffff1673ffffffffffffffffffffffffffffffffffffffff1663a9059cbb33836040518363ffffffff1660e01b8152600401808373ffffffffffffffffffffffffffffffffffffffff1673ffffffffffffffffffffffffffffffffffffffff16815260200182815260200192505050602060405180830381600087803b15801561062e57600080fd5b505af1158015610642573d6000803e3d6000fd5b505050506040513d602081101561065857600080fd5b81019080805190602001909291905050505080600160009054906101000a900473ffffffffffffffffffffffffffffffffffffffff1673ffffffffffffffffffffffffffffffffffffffff166370a08231306040518263ffffffff1660e01b8152600401808273ffffffffffffffffffffffffffffffffffffffff1673ffffffffffffffffffffffffffffffffffffffff16815260200191505060206040518083038186803b15801561070a57600080fd5b505afa15801561071e573d6000803e3d6000fd5b505050506040513d602081101561073457600080fd5b8101908080519060200190929190505050101561075057600080fd5b7f6faf93231a456e552dbc9961f58d9713ee4f2e69d15f1975b050ef0911053a7b33600160009054906101000a900473ffffffffffffffffffffffffffffffffffffffff1683600254604051808573ffffffffffffffffffffffffffffffffffffffff1673ffffffffffffffffffffffffffffffffffffffff1681526020018473ffffffffffffffffffffffffffffffffffffffff1673ffffffffffffffffffffffffffffffffffffffff16815260200183815260200182815260200194505050505060405180910390a150565b600160009054906101000a900473ffffffffffffffffffffffffffffffffffffffff168156fea265627a7a72315820c973124391ddfd3ad3bb4ebed0793a0369a22173ec2868cc36210207d003945664736f6c63430005100032",
  "source": "// SPDX-License-Identifier: MIT\npragma solidity ^0.5.16;\nimport \"./Token.sol\";\ncontract EthSwap {\n    string public name = \"EthSwap Instant Exchange\";\n    Token public token;\n    uint public rate = 100;\n\n    event TokensPurchased(\n        address account,\n        address token,\n        uint amount,\n        uint rate\n    );\n    event TokensSold(address account, address token, uint amount, uint rate);\n    constructor(Token _token) public {\n        token = _token;\n    }\n    function buyTokens() public payable {\n        uint amountOfTokens = msg.value * rate;\n        token.transfer(msg.sender, amountOfTokens);\n\n        require(token.balanceOf(address(this)) >= amountOfTokens);\n\n        emit TokensPurchased(msg.sender, address(token), amountOfTokens, rate);\n    }\n\n    function sellTokens(uint _amount) public {\n      require(token.balanceOf(msg.sender)>= _amount);\n        uint amountOfTokens = _amount / rate;\n\n        require(address(this).balance >= amountOfTokens);\n        token.transferFrom(msg.sender, address(this), _amount);\n        msg.sender.transfer(amountOfTokens);\n\n        emit TokensPurchased(msg.sender, address(token), _amount, rate);\n    }\n}\n",
  "sourcePath": "/Users/HiveCoin/Documents/dapps/eth-swap/src/contracts/EthSwap.sol",
  "compiler": {
    "name": "solc",
    "version": "0.5.16+commit.9c3226ce.Emscripten.clang"
  },
  "schemaVersion": "3.0.23",
  "updatedAt": "2025-01-27T09:28:19.995Z",
  "networkType": "ethereum",
  "devdoc": {
    "methods": {}
  },
  "userdoc": {
    "methods": {}
  }
}